{
  "_format": "hh-sol-artifact-1",
  "contractName": "TransfertecNFT",
  "sourceName": "contracts/TransfertecNFT.sol",
  "abi": [
    {
      "inputs": [],
      "stateMutability": "nonpayable",
      "type": "constructor"
    },
    {
      "inputs": [
        {
          "internalType": "address",
          "name": "sender",
          "type": "address"
        },
        {
          "internalType": "uint256",
          "name": "tokenId",
          "type": "uint256"
        },
        {
          "internalType": "address",
          "name": "owner",
          "type": "address"
        }
      ],
      "name": "ERC721IncorrectOwner",
      "type": "error"
    },
    {
      "inputs": [
        {
          "internalType": "address",
          "name": "operator",
          "type": "address"
        },
        {
          "internalType": "uint256",
          "name": "tokenId",
          "type": "uint256"
        }
      ],
      "name": "ERC721InsufficientApproval",
      "type": "error"
    },
    {
      "inputs": [
        {
          "internalType": "address",
          "name": "approver",
          "type": "address"
        }
      ],
      "name": "ERC721InvalidApprover",
      "type": "error"
    },
    {
      "inputs": [
        {
          "internalType": "address",
          "name": "operator",
          "type": "address"
        }
      ],
      "name": "ERC721InvalidOperator",
      "type": "error"
    },
    {
      "inputs": [
        {
          "internalType": "address",
          "name": "owner",
          "type": "address"
        }
      ],
      "name": "ERC721InvalidOwner",
      "type": "error"
    },
    {
      "inputs": [
        {
          "internalType": "address",
          "name": "receiver",
          "type": "address"
        }
      ],
      "name": "ERC721InvalidReceiver",
      "type": "error"
    },
    {
      "inputs": [
        {
          "internalType": "address",
          "name": "sender",
          "type": "address"
        }
      ],
      "name": "ERC721InvalidSender",
      "type": "error"
    },
    {
      "inputs": [
        {
          "internalType": "uint256",
          "name": "tokenId",
          "type": "uint256"
        }
      ],
      "name": "ERC721NonexistentToken",
      "type": "error"
    },
    {
      "inputs": [
        {
          "internalType": "address",
          "name": "owner",
          "type": "address"
        }
      ],
      "name": "OwnableInvalidOwner",
      "type": "error"
    },
    {
      "inputs": [
        {
          "internalType": "address",
          "name": "account",
          "type": "address"
        }
      ],
      "name": "OwnableUnauthorizedAccount",
      "type": "error"
    },
    {
      "anonymous": false,
      "inputs": [
        {
          "indexed": true,
          "internalType": "address",
          "name": "owner",
          "type": "address"
        },
        {
          "indexed": true,
          "internalType": "address",
          "name": "approved",
          "type": "address"
        },
        {
          "indexed": true,
          "internalType": "uint256",
          "name": "tokenId",
          "type": "uint256"
        }
      ],
      "name": "Approval",
      "type": "event"
    },
    {
      "anonymous": false,
      "inputs": [
        {
          "indexed": true,
          "internalType": "address",
          "name": "owner",
          "type": "address"
        },
        {
          "indexed": true,
          "internalType": "address",
          "name": "operator",
          "type": "address"
        },
        {
          "indexed": false,
          "internalType": "bool",
          "name": "approved",
          "type": "bool"
        }
      ],
      "name": "ApprovalForAll",
      "type": "event"
    },
    {
      "anonymous": false,
      "inputs": [
        {
          "indexed": false,
          "internalType": "uint256",
          "name": "_fromTokenId",
          "type": "uint256"
        },
        {
          "indexed": false,
          "internalType": "uint256",
          "name": "_toTokenId",
          "type": "uint256"
        }
      ],
      "name": "BatchMetadataUpdate",
      "type": "event"
    },
    {
      "anonymous": false,
      "inputs": [
        {
          "indexed": true,
          "internalType": "address",
          "name": "licensee",
          "type": "address"
        },
        {
          "indexed": true,
          "internalType": "uint256",
          "name": "tokenId",
          "type": "uint256"
        },
        {
          "indexed": true,
          "internalType": "uint256",
          "name": "technologyId",
          "type": "uint256"
        },
        {
          "indexed": false,
          "internalType": "uint256",
          "name": "priceWei",
          "type": "uint256"
        }
      ],
      "name": "Licensed",
      "type": "event"
    },
    {
      "anonymous": false,
      "inputs": [
        {
          "indexed": false,
          "internalType": "uint256",
          "name": "_tokenId",
          "type": "uint256"
        }
      ],
      "name": "MetadataUpdate",
      "type": "event"
    },
    {
      "anonymous": false,
      "inputs": [
        {
          "indexed": true,
          "internalType": "address",
          "name": "previousOwner",
          "type": "address"
        },
        {
          "indexed": true,
          "internalType": "address",
          "name": "newOwner",
          "type": "address"
        }
      ],
      "name": "OwnershipTransferred",
      "type": "event"
    },
    {
      "anonymous": false,
      "inputs": [
        {
          "indexed": true,
          "internalType": "uint256",
          "name": "technologyId",
          "type": "uint256"
        },
        {
          "indexed": false,
          "internalType": "uint256",
          "name": "priceWei",
          "type": "uint256"
        },
        {
          "indexed": false,
          "internalType": "bool",
          "name": "isExclusive",
          "type": "bool"
        },
        {
          "indexed": false,
          "internalType": "string",
          "name": "tokenURI",
          "type": "string"
        }
      ],
      "name": "TechnologyRegistered",
      "type": "event"
    },
    {
      "anonymous": false,
      "inputs": [
        {
          "indexed": true,
          "internalType": "uint256",
          "name": "technologyId",
          "type": "uint256"
        },
        {
          "indexed": false,
          "internalType": "uint256",
          "name": "priceWei",
          "type": "uint256"
        },
        {
          "indexed": false,
          "internalType": "bool",
          "name": "isExclusive",
          "type": "bool"
        },
        {
          "indexed": false,
          "internalType": "string",
          "name": "tokenURI",
          "type": "string"
        }
      ],
      "name": "TechnologyUpdated",
      "type": "event"
    },
    {
      "anonymous": false,
      "inputs": [
        {
          "indexed": true,
          "internalType": "address",
          "name": "from",
          "type": "address"
        },
        {
          "indexed": true,
          "internalType": "address",
          "name": "to",
          "type": "address"
        },
        {
          "indexed": true,
          "internalType": "uint256",
          "name": "tokenId",
          "type": "uint256"
        }
      ],
      "name": "Transfer",
      "type": "event"
    },
    {
      "inputs": [
        {
          "internalType": "address",
          "name": "to",
          "type": "address"
        },
        {
          "internalType": "uint256",
          "name": "tokenId",
          "type": "uint256"
        }
      ],
      "name": "approve",
      "outputs": [],
      "stateMutability": "nonpayable",
      "type": "function"
    },
    {
      "inputs": [
        {
          "internalType": "address",
          "name": "owner",
          "type": "address"
        }
      ],
      "name": "balanceOf",
      "outputs": [
        {
          "internalType": "uint256",
          "name": "",
          "type": "uint256"
        }
      ],
      "stateMutability": "view",
      "type": "function"
    },
    {
      "inputs": [
        {
          "internalType": "uint256",
          "name": "tokenId",
          "type": "uint256"
        }
      ],
      "name": "getApproved",
      "outputs": [
        {
          "internalType": "address",
          "name": "",
          "type": "address"
        }
      ],
      "stateMutability": "view",
      "type": "function"
    },
    {
      "inputs": [
        {
          "internalType": "uint256",
          "name": "technologyId",
          "type": "uint256"
        }
      ],
      "name": "getTechnology",
      "outputs": [
        {
          "internalType": "string",
          "name": "tokenURI",
          "type": "string"
        },
        {
          "internalType": "uint256",
          "name": "priceWei",
          "type": "uint256"
        },
        {
          "internalType": "bool",
          "name": "isExclusive",
          "type": "bool"
        },
        {
          "internalType": "bool",
          "name": "isRegistered",
          "type": "bool"
        },
        {
          "internalType": "bool",
          "name": "exclusiveLicensed",
          "type": "bool"
        },
        {
          "internalType": "uint256",
          "name": "totalLicenses",
          "type": "uint256"
        }
      ],
      "stateMutability": "view",
      "type": "function"
    },
    {
      "inputs": [
        {
          "internalType": "address",
          "name": "owner",
          "type": "address"
        },
        {
          "internalType": "address",
          "name": "operator",
          "type": "address"
        }
      ],
      "name": "isApprovedForAll",
      "outputs": [
        {
          "internalType": "bool",
          "name": "",
          "type": "bool"
        }
      ],
      "stateMutability": "view",
      "type": "function"
    },
    {
      "inputs": [
        {
          "internalType": "uint256",
          "name": "technologyId",
          "type": "uint256"
        }
      ],
      "name": "licenseTechnology",
      "outputs": [
        {
          "internalType": "uint256",
          "name": "",
          "type": "uint256"
        }
      ],
      "stateMutability": "payable",
      "type": "function"
    },
    {
      "inputs": [
        {
          "internalType": "address",
          "name": "to",
          "type": "address"
        },
        {
          "internalType": "string",
          "name": "tokenURI",
          "type": "string"
        }
      ],
      "name": "mint",
      "outputs": [
        {
          "internalType": "uint256",
          "name": "",
          "type": "uint256"
        }
      ],
      "stateMutability": "nonpayable",
      "type": "function"
    },
    {
      "inputs": [],
      "name": "name",
      "outputs": [
        {
          "internalType": "string",
          "name": "",
          "type": "string"
        }
      ],
      "stateMutability": "view",
      "type": "function"
    },
    {
      "inputs": [],
      "name": "owner",
      "outputs": [
        {
          "internalType": "address",
          "name": "",
          "type": "address"
        }
      ],
      "stateMutability": "view",
      "type": "function"
    },
    {
      "inputs": [
        {
          "internalType": "uint256",
          "name": "tokenId",
          "type": "uint256"
        }
      ],
      "name": "ownerOf",
      "outputs": [
        {
          "internalType": "address",
          "name": "",
          "type": "address"
        }
      ],
      "stateMutability": "view",
      "type": "function"
    },
    {
      "inputs": [
        {
          "internalType": "uint256",
          "name": "technologyId",
          "type": "uint256"
        },
        {
          "internalType": "string",
          "name": "tokenURI",
          "type": "string"
        },
        {
          "internalType": "uint256",
          "name": "priceWei",
          "type": "uint256"
        },
        {
          "internalType": "bool",
          "name": "isExclusive",
          "type": "bool"
        }
      ],
      "name": "registerTechnology",
      "outputs": [],
      "stateMutability": "nonpayable",
      "type": "function"
    },
    {
      "inputs": [],
      "name": "renounceOwnership",
      "outputs": [],
      "stateMutability": "nonpayable",
      "type": "function"
    },
    {
      "inputs": [
        {
          "internalType": "address",
          "name": "from",
          "type": "address"
        },
        {
          "internalType": "address",
          "name": "to",
          "type": "address"
        },
        {
          "internalType": "uint256",
          "name": "tokenId",
          "type": "uint256"
        }
      ],
      "name": "safeTransferFrom",
      "outputs": [],
      "stateMutability": "nonpayable",
      "type": "function"
    },
    {
      "inputs": [
        {
          "internalType": "address",
          "name": "from",
          "type": "address"
        },
        {
          "internalType": "address",
          "name": "to",
          "type": "address"
        },
        {
          "internalType": "uint256",
          "name": "tokenId",
          "type": "uint256"
        },
        {
          "internalType": "bytes",
          "name": "data",
          "type": "bytes"
        }
      ],
      "name": "safeTransferFrom",
      "outputs": [],
      "stateMutability": "nonpayable",
      "type": "function"
    },
    {
      "inputs": [
        {
          "internalType": "address",
          "name": "operator",
          "type": "address"
        },
        {
          "internalType": "bool",
          "name": "approved",
          "type": "bool"
        }
      ],
      "name": "setApprovalForAll",
      "outputs": [],
      "stateMutability": "nonpayable",
      "type": "function"
    },
    {
      "inputs": [
        {
          "internalType": "bytes4",
          "name": "interfaceId",
          "type": "bytes4"
        }
      ],
      "name": "supportsInterface",
      "outputs": [
        {
          "internalType": "bool",
          "name": "",
          "type": "bool"
        }
      ],
      "stateMutability": "view",
      "type": "function"
    },
    {
      "inputs": [],
      "name": "symbol",
      "outputs": [
        {
          "internalType": "string",
          "name": "",
          "type": "string"
        }
      ],
      "stateMutability": "view",
      "type": "function"
    },
    {
      "inputs": [
        {
          "internalType": "uint256",
          "name": "tokenId",
          "type": "uint256"
        }
      ],
      "name": "tokenURI",
      "outputs": [
        {
          "internalType": "string",
          "name": "",
          "type": "string"
        }
      ],
      "stateMutability": "view",
      "type": "function"
    },
    {
      "inputs": [
        {
          "internalType": "address",
          "name": "from",
          "type": "address"
        },
        {
          "internalType": "address",
          "name": "to",
          "type": "address"
        },
        {
          "internalType": "uint256",
          "name": "tokenId",
          "type": "uint256"
        }
      ],
      "name": "transferFrom",
      "outputs": [],
      "stateMutability": "nonpayable",
      "type": "function"
    },
    {
      "inputs": [
        {
          "internalType": "address",
          "name": "newOwner",
          "type": "address"
        }
      ],
      "name": "transferOwnership",
      "outputs": [],
      "stateMutability": "nonpayable",
      "type": "function"
    },
    {
      "inputs": [
        {
          "internalType": "uint256",
          "name": "technologyId",
          "type": "uint256"
        },
        {
          "internalType": "string",
          "name": "tokenURI",
          "type": "string"
        },
        {
          "internalType": "uint256",
          "name": "priceWei",
          "type": "uint256"
        },
        {
          "internalType": "bool",
          "name": "isExclusive",
          "type": "bool"
        }
      ],
      "name": "updateTechnology",
      "outputs": [],
      "stateMutability": "nonpayable",
      "type": "function"
    }
  ],
  "bytecode": "0x60806040523480156200001157600080fd5b50336040518060400160405280600e81526020016d151c985b9cd9995c9d1958d3919560921b8152506040518060400160405280600681526020016515150b53919560d21b81525081600090816200006a9190620001b6565b506001620000798282620001b6565b5050506001600160a01b038116620000ab57604051631e4fbdf760e01b81526000600482015260240160405180910390fd5b620000b681620000bd565b5062000282565b600780546001600160a01b038381166001600160a01b0319831681179093556040519116919082907f8be0079c531659141344cd1fd0a4f28419497f9722a3daafe3b4186f6b6457e090600090a35050565b634e487b7160e01b600052604160045260246000fd5b600181811c908216806200013a57607f821691505b6020821081036200015b57634e487b7160e01b600052602260045260246000fd5b50919050565b601f821115620001b1576000816000526020600020601f850160051c810160208610156200018c5750805b601f850160051c820191505b81811015620001ad5782815560010162000198565b5050505b505050565b81516001600160401b03811115620001d257620001d26200010f565b620001ea81620001e3845462000125565b8462000161565b602080601f831160018114620002225760008415620002095750858301515b600019600386901b1c1916600185901b178555620001ad565b600085815260208120601f198616915b82811015620002535788860151825594840194600190910190840162000232565b5085821015620002725787850151600019600388901b60f8161c191681555b5050505050600190811b01905550565b611c3980620002926000396000f3fe60806040526004361061012a5760003560e01c8063715018a6116100ab578063b88d4fde1161006f578063b88d4fde1461033b578063c87b56dd1461035b578063d0def5211461037b578063e985e9c51461039b578063f19bd14c146103bb578063f2fde38b146103db57600080fd5b8063715018a6146102b35780638da5cb5b146102c85780639521d16c146102e657806395d89b4114610306578063a22cb4651461031b57600080fd5b806342842e0e116100f257806342842e0e1461020057806357324c45146102205780636352211e146102525780636cd0621b1461027257806370a082311461029357600080fd5b806301ffc9a71461012f57806306fdde0314610164578063081812fc14610186578063095ea7b3146101be57806323b872dd146101e0575b600080fd5b34801561013b57600080fd5b5061014f61014a366004611635565b6103fb565b60405190151581526020015b60405180910390f35b34801561017057600080fd5b50610179610426565b60405161015b91906116a2565b34801561019257600080fd5b506101a66101a13660046116b5565b6104b8565b6040516001600160a01b03909116815260200161015b565b3480156101ca57600080fd5b506101de6101d93660046116ea565b6104e1565b005b3480156101ec57600080fd5b506101de6101fb366004611714565b6104f0565b34801561020c57600080fd5b506101de61021b366004611714565b610580565b34801561022c57600080fd5b5061024061023b3660046116b5565b6105a0565b60405161015b96959493929190611750565b34801561025e57600080fd5b506101a661026d3660046116b5565b610688565b6102856102803660046116b5565b610693565b60405190815260200161015b565b34801561029f57600080fd5b506102856102ae36600461178e565b610969565b3480156102bf57600080fd5b506101de6109b1565b3480156102d457600080fd5b506007546001600160a01b03166101a6565b3480156102f257600080fd5b506101de610301366004611865565b6109c5565b34801561031257600080fd5b50610179610a8d565b34801561032757600080fd5b506101de6103363660046118c6565b610a9c565b34801561034757600080fd5b506101de6103563660046118f9565b610aa7565b34801561036757600080fd5b506101796103763660046116b5565b610abf565b34801561038757600080fd5b50610285610396366004611975565b610bd0565b3480156103a757600080fd5b5061014f6103b63660046119c3565b610c10565b3480156103c757600080fd5b506101de6103d6366004611865565b610c3e565b3480156103e757600080fd5b506101de6103f636600461178e565b610d76565b60006001600160e01b03198216632483248360e11b1480610420575061042082610db4565b92915050565b606060008054610435906119ed565b80601f0160208091040260200160405190810160405280929190818152602001828054610461906119ed565b80156104ae5780601f10610483576101008083540402835291602001916104ae565b820191906000526020600020905b81548152906001019060200180831161049157829003601f168201915b5050505050905090565b60006104c382610e04565b506000828152600460205260409020546001600160a01b0316610420565b6104ec828233610e3d565b5050565b6001600160a01b03821661051f57604051633250574960e11b8152600060048201526024015b60405180910390fd5b600061052c838333610e4a565b9050836001600160a01b0316816001600160a01b03161461057a576040516364283d7b60e01b81526001600160a01b0380861660048301526024820184905282166044820152606401610516565b50505050565b61059b83838360405180602001604052806000815250610aa7565b505050565b6000818152600960205260408120600181015460028201546003830154835460609594859485948594859484939260ff808216936101008304821693620100009093049091169186906105f2906119ed565b80601f016020809104026020016040519081016040528092919081815260200182805461061e906119ed565b801561066b5780601f106106405761010080835404028352916020019161066b565b820191906000526020600020905b81548152906001019060200180831161064e57829003601f168201915b505050505095509650965096509650965096505091939550919395565b600061042082610e04565b60008181526009602052604081206002810154610100900460ff166106eb5760405162461bcd60e51b815260206004820152600e60248201526d139bdd081c9959da5cdd195c995960921b6044820152606401610516565b80600101543410156107365760405162461bcd60e51b8152602060048201526014602482015273125b9cdd59999a58da595b9d081c185e5b595b9d60621b6044820152606401610516565b600281015460ff16156107ab57600281015462010000900460ff16156107975760405162461bcd60e51b8152602060048201526016602482015275115e18db1d5cda5d99481b1a58d95b9cd9481cdbdb1960521b6044820152606401610516565b60028101805462ff00001916620100001790555b6001600860008282546107be9190611a27565b90915550506008546107d03382610f43565b610866818360000180546107e3906119ed565b80601f016020809104026020016040519081016040528092919081815260200182805461080f906119ed565b801561085c5780601f106108315761010080835404028352916020019161085c565b820191906000526020600020905b81548152906001019060200180831161083f57829003601f168201915b5050505050610f5d565b600182600301600082825461087b9190611a27565b90915550506007546040516000916001600160a01b03169034908381818185875af1925050503d80600081146108cd576040519150601f19603f3d011682016040523d82523d6000602084013e6108d2565b606091505b505090508061091c5760405162461bcd60e51b815260206004820152601660248201527514185e5b595b9d08199bdc9dd85c990819985a5b195960521b6044820152606401610516565b8482336001600160a01b03167f01496ac716f8f347e0aacf376d6f3d827b357eab611a65e8f4bb3d43f296ac723460405161095991815260200190565b60405180910390a4509392505050565b60006001600160a01b038216610995576040516322718ad960e21b815260006004820152602401610516565b506001600160a01b031660009081526003602052604090205490565b6109b9610fad565b6109c36000610fda565b565b6109cd610fad565b60008481526009602052604090206002810154610100900460ff16610a255760405162461bcd60e51b815260206004820152600e60248201526d139bdd081c9959da5cdd195c995960921b6044820152606401610516565b80610a308582611a90565b506001810183905560028101805460ff191683151517905560405185907fc6c1645064b30c0ab4159dac7621ac36326a1b71bc9f13b60c15bf7fd80031a690610a7e90869086908990611b50565b60405180910390a25050505050565b606060018054610435906119ed565b6104ec33838361102c565b610ab28484846104f0565b61057a33858585856110cb565b6060610aca82610e04565b5060008281526006602052604081208054610ae4906119ed565b80601f0160208091040260200160405190810160405280929190818152602001828054610b10906119ed565b8015610b5d5780601f10610b3257610100808354040283529160200191610b5d565b820191906000526020600020905b815481529060010190602001808311610b4057829003601f168201915b505050505090506000610b7b60408051602081019091526000815290565b90508051600003610b8d575092915050565b815115610bbf578082604051602001610ba7929190611b7a565b60405160208183030381529060405292505050919050565b610bc8846111f6565b949350505050565b6000610bda610fad565b600160086000828254610bed9190611a27565b9091555050600854610bff8482610f43565b610c098184610f5d565b9392505050565b6001600160a01b03918216600090815260056020908152604080832093909416825291909152205460ff1690565b610c46610fad565b83600003610c835760405162461bcd60e51b815260206004820152600a602482015269125b9d985b1a59081a5960b21b6044820152606401610516565b6040805160c0810182528481526020808201859052831515828401526001606083015260006080830181905260a0830181905287815260099091529190912081518190610cd09082611a90565b5060208201516001820155604080830151600283018054606086015160808701511515620100000262ff0000199115156101000261ff00199515159590951661ffff1990931692909217939093179290921691909117905560a0909201516003909101555184907fe3a1422f2f29a85dd9c369bad44775511c073a093c99e6982c994de00c0601b690610d6890859085908890611b50565b60405180910390a250505050565b610d7e610fad565b6001600160a01b038116610da857604051631e4fbdf760e01b815260006004820152602401610516565b610db181610fda565b50565b60006001600160e01b031982166380ac58cd60e01b1480610de557506001600160e01b03198216635b5e139f60e01b145b8061042057506301ffc9a760e01b6001600160e01b0319831614610420565b6000818152600260205260408120546001600160a01b03168061042057604051637e27328960e01b815260048101849052602401610516565b61059b838383600161126a565b6000828152600260205260408120546001600160a01b0390811690831615610e7757610e77818486611370565b6001600160a01b03811615610eb557610e9460008560008061126a565b6001600160a01b038116600090815260036020526040902080546000190190555b6001600160a01b03851615610ee4576001600160a01b0385166000908152600360205260409020805460010190555b60008481526002602052604080822080546001600160a01b0319166001600160a01b0389811691821790925591518793918516917fddf252ad1be2c89b69c2b068fc378daa952ba7f163c4a11628f55a4df523b3ef91a4949350505050565b6104ec8282604051806020016040528060008152506113d4565b6000828152600660205260409020610f758282611a90565b506040518281527ff8e1a15aba9398e019f0b49df1a4fde98ee17ae345cb5f6b5e2c27f5033e8ce79060200160405180910390a15050565b6007546001600160a01b031633146109c35760405163118cdaa760e01b8152336004820152602401610516565b600780546001600160a01b038381166001600160a01b0319831681179093556040519116919082907f8be0079c531659141344cd1fd0a4f28419497f9722a3daafe3b4186f6b6457e090600090a35050565b6001600160a01b03821661105e57604051630b61174360e31b81526001600160a01b0383166004820152602401610516565b6001600160a01b03838116600081815260056020908152604080832094871680845294825291829020805460ff191686151590811790915591519182527f17307eab39ab6107e8899845ad3d59bd9653f200f220920489ca2b5937696c31910160405180910390a3505050565b6001600160a01b0383163b156111ef57604051630a85bd0160e11b81526001600160a01b0384169063150b7a029061110d908890889087908790600401611ba9565b6020604051808303816000875af1925050508015611148575060408051601f3d908101601f1916820190925261114591810190611be6565b60015b6111b1573d808015611176576040519150601f19603f3d011682016040523d82523d6000602084013e61117b565b606091505b5080516000036111a957604051633250574960e11b81526001600160a01b0385166004820152602401610516565b805160208201fd5b6001600160e01b03198116630a85bd0160e11b146111ed57604051633250574960e11b81526001600160a01b0385166004820152602401610516565b505b5050505050565b606061120182610e04565b50600061121960408051602081019091526000815290565b905060008151116112395760405180602001604052806000815250610c09565b80611243846113ec565b604051602001611254929190611b7a565b6040516020818303038152906040529392505050565b808061127e57506001600160a01b03821615155b1561134057600061128e84610e04565b90506001600160a01b038316158015906112ba5750826001600160a01b0316816001600160a01b031614155b80156112cd57506112cb8184610c10565b155b156112f65760405163a9fbf51f60e01b81526001600160a01b0384166004820152602401610516565b811561133e5783856001600160a01b0316826001600160a01b03167f8c5be1e5ebec7d5bd14f71427d1e84f3dd0314c0f7b2291e5b200ac8c7c3b92560405160405180910390a45b505b5050600090815260046020526040902080546001600160a01b0319166001600160a01b0392909216919091179055565b61137b83838361147f565b61059b576001600160a01b0383166113a957604051637e27328960e01b815260048101829052602401610516565b60405163177e802f60e01b81526001600160a01b038316600482015260248101829052604401610516565b6113de83836114e2565b61059b3360008585856110cb565b606060006113f983611547565b600101905060008167ffffffffffffffff811115611419576114196117a9565b6040519080825280601f01601f191660200182016040528015611443576020820181803683370190505b5090508181016020015b600019016f181899199a1a9b1b9c1cb0b131b232b360811b600a86061a8153600a850494508461144d57509392505050565b60006001600160a01b03831615801590610bc85750826001600160a01b0316846001600160a01b031614806114b957506114b98484610c10565b80610bc85750506000908152600460205260409020546001600160a01b03908116911614919050565b6001600160a01b03821661150c57604051633250574960e11b815260006004820152602401610516565b600061151a83836000610e4a565b90506001600160a01b0381161561059b576040516339e3563760e11b815260006004820152602401610516565b60008072184f03e93ff9f4daa797ed6e38ed64bf6a1f0160401b83106115865772184f03e93ff9f4daa797ed6e38ed64bf6a1f0160401b830492506040015b6d04ee2d6d415b85acef810000000083106115b2576d04ee2d6d415b85acef8100000000830492506020015b662386f26fc1000083106115d057662386f26fc10000830492506010015b6305f5e10083106115e8576305f5e100830492506008015b61271083106115fc57612710830492506004015b6064831061160e576064830492506002015b600a83106104205760010192915050565b6001600160e01b031981168114610db157600080fd5b60006020828403121561164757600080fd5b8135610c098161161f565b60005b8381101561166d578181015183820152602001611655565b50506000910152565b6000815180845261168e816020860160208601611652565b601f01601f19169290920160200192915050565b602081526000610c096020830184611676565b6000602082840312156116c757600080fd5b5035919050565b80356001600160a01b03811681146116e557600080fd5b919050565b600080604083850312156116fd57600080fd5b611706836116ce565b946020939093013593505050565b60008060006060848603121561172957600080fd5b611732846116ce565b9250611740602085016116ce565b9150604084013590509250925092565b60c08152600061176360c0830189611676565b602083019790975250931515604085015291151560608401521515608083015260a090910152919050565b6000602082840312156117a057600080fd5b610c09826116ce565b634e487b7160e01b600052604160045260246000fd5b600067ffffffffffffffff808411156117da576117da6117a9565b604051601f8501601f19908116603f01168101908282118183101715611802576118026117a9565b8160405280935085815286868601111561181b57600080fd5b858560208301376000602087830101525050509392505050565b600082601f83011261184657600080fd5b610c09838335602085016117bf565b803580151581146116e557600080fd5b6000806000806080858703121561187b57600080fd5b84359350602085013567ffffffffffffffff81111561189957600080fd5b6118a587828801611835565b935050604085013591506118bb60608601611855565b905092959194509250565b600080604083850312156118d957600080fd5b6118e2836116ce565b91506118f060208401611855565b90509250929050565b6000806000806080858703121561190f57600080fd5b611918856116ce565b9350611926602086016116ce565b925060408501359150606085013567ffffffffffffffff81111561194957600080fd5b8501601f8101871361195a57600080fd5b611969878235602084016117bf565b91505092959194509250565b6000806040838503121561198857600080fd5b611991836116ce565b9150602083013567ffffffffffffffff8111156119ad57600080fd5b6119b985828601611835565b9150509250929050565b600080604083850312156119d657600080fd5b6119df836116ce565b91506118f0602084016116ce565b600181811c90821680611a0157607f821691505b602082108103611a2157634e487b7160e01b600052602260045260246000fd5b50919050565b8082018082111561042057634e487b7160e01b600052601160045260246000fd5b601f82111561059b576000816000526020600020601f850160051c81016020861015611a715750805b601f850160051c820191505b818110156111ed57828155600101611a7d565b815167ffffffffffffffff811115611aaa57611aaa6117a9565b611abe81611ab884546119ed565b84611a48565b602080601f831160018114611af35760008415611adb5750858301515b600019600386901b1c1916600185901b1785556111ed565b600085815260208120601f198616915b82811015611b2257888601518255948401946001909101908401611b03565b5085821015611b405787850151600019600388901b60f8161c191681555b5050505050600190811b01905550565b8381528215156020820152606060408201526000611b716060830184611676565b95945050505050565b60008351611b8c818460208801611652565b835190830190611ba0818360208801611652565b01949350505050565b6001600160a01b0385811682528416602082015260408101839052608060608201819052600090611bdc90830184611676565b9695505050505050565b600060208284031215611bf857600080fd5b8151610c098161161f56fea2646970667358221220818cb91dcc83f6794c2910bcbcd358f95986f7a89ec2bc93143ca7e7852e6ac064736f6c63430008180033",
  "linkReferences": {},
  "deployedLinkReferences": {}
}